{
  "contractName": "Voting",
  "abi": [
    {
      "inputs": [],
      "stateMutability": "nonpayable",
      "type": "constructor"
    },
    {
      "anonymous": false,
      "inputs": [
        {
          "indexed": false,
          "internalType": "address[]",
          "name": "_approvedAddresses",
          "type": "address[]"
        }
      ],
      "name": "ApproveVoter",
      "type": "event"
    },
    {
      "inputs": [
        {
          "internalType": "uint256",
          "name": "",
          "type": "uint256"
        }
      ],
      "name": "candidates",
      "outputs": [
        {
          "internalType": "string",
          "name": "name",
          "type": "string"
        },
        {
          "internalType": "uint256",
          "name": "voteCount",
          "type": "uint256"
        }
      ],
      "stateMutability": "view",
      "type": "function",
      "constant": true
    },
    {
      "inputs": [],
      "name": "chairPerson",
      "outputs": [
        {
          "internalType": "address",
          "name": "",
          "type": "address"
        }
      ],
      "stateMutability": "view",
      "type": "function",
      "constant": true
    },
    {
      "inputs": [
        {
          "internalType": "address",
          "name": "",
          "type": "address"
        }
      ],
      "name": "voters",
      "outputs": [
        {
          "internalType": "uint256",
          "name": "vote",
          "type": "uint256"
        },
        {
          "internalType": "bool",
          "name": "hasVoted",
          "type": "bool"
        },
        {
          "internalType": "bool",
          "name": "canVote",
          "type": "bool"
        }
      ],
      "stateMutability": "view",
      "type": "function",
      "constant": true
    },
    {
      "inputs": [],
      "name": "votingEnded",
      "outputs": [
        {
          "internalType": "bool",
          "name": "",
          "type": "bool"
        }
      ],
      "stateMutability": "view",
      "type": "function",
      "constant": true
    },
    {
      "inputs": [
        {
          "internalType": "string[]",
          "name": "candidateNames",
          "type": "string[]"
        }
      ],
      "name": "addCandidates",
      "outputs": [],
      "stateMutability": "nonpayable",
      "type": "function"
    },
    {
      "inputs": [
        {
          "internalType": "string",
          "name": "title",
          "type": "string"
        }
      ],
      "name": "addTitle",
      "outputs": [],
      "stateMutability": "nonpayable",
      "type": "function"
    },
    {
      "inputs": [],
      "name": "getTitle",
      "outputs": [
        {
          "internalType": "string",
          "name": "",
          "type": "string"
        }
      ],
      "stateMutability": "view",
      "type": "function",
      "constant": true
    },
    {
      "inputs": [
        {
          "internalType": "string[]",
          "name": "newCandidatesNames",
          "type": "string[]"
        }
      ],
      "name": "updateCandidates",
      "outputs": [],
      "stateMutability": "nonpayable",
      "type": "function"
    },
    {
      "inputs": [],
      "name": "getCandidates",
      "outputs": [
        {
          "components": [
            {
              "internalType": "string",
              "name": "name",
              "type": "string"
            },
            {
              "internalType": "uint256",
              "name": "voteCount",
              "type": "uint256"
            }
          ],
          "internalType": "struct Voting.Candidate[]",
          "name": "",
          "type": "tuple[]"
        }
      ],
      "stateMutability": "view",
      "type": "function",
      "constant": true
    },
    {
      "inputs": [
        {
          "internalType": "address[]",
          "name": "votersToBeApproved",
          "type": "address[]"
        }
      ],
      "name": "approveVoter",
      "outputs": [],
      "stateMutability": "nonpayable",
      "type": "function"
    },
    {
      "inputs": [
        {
          "internalType": "uint256",
          "name": "candidateIndex",
          "type": "uint256"
        }
      ],
      "name": "vote",
      "outputs": [],
      "stateMutability": "nonpayable",
      "type": "function"
    },
    {
      "inputs": [],
      "name": "endVoting",
      "outputs": [],
      "stateMutability": "nonpayable",
      "type": "function"
    },
    {
      "inputs": [],
      "name": "getWinner",
      "outputs": [
        {
          "internalType": "string",
          "name": "",
          "type": "string"
        },
        {
          "internalType": "uint256",
          "name": "",
          "type": "uint256"
        }
      ],
      "stateMutability": "view",
      "type": "function",
      "constant": true
    }
  ],
  "bytecode": "0x60806040526000600160006101000a81548160ff02191690831515021790555034801561002b57600080fd5b50336001806101000a81548173ffffffffffffffffffffffffffffffffffffffff021916908373ffffffffffffffffffffffffffffffffffffffff160217905550611b078061007b6000396000f3fe608060405234801561001057600080fd5b50600436106100cf5760003560e01c80638e7ea5b21161008c578063a999e56211610066578063a999e56214610202578063c3403ddf1461021e578063d4d4b5ac14610228578063ff3c1a8f14610246576100cf565b80638e7ea5b2146101935780639d5a0529146101b2578063a3ec138d146101d0576100cf565b80630121b93f146100d457806306a49fce146100f05780631c2979f61461010e5780633477ee2e1461012a57806337bb90a11461015b5780638107b0d014610177575b600080fd5b6100ee60048036038101906100e9919061127d565b610264565b005b6100f8610425565b6040516101059190611642565b60405180910390f35b610128600480360381019061012391906111ba565b610520565b005b610144600480360381019061013f919061127d565b610790565b6040516101529291906116a1565b60405180910390f35b6101756004803603810190610170919061123c565b61084c565b005b610191600480360381019061018c91906111fb565b610866565b005b61019b6109b4565b6040516101a99291906116a1565b60405180910390f35b6101ba610bb6565b6040516101c79190611664565b60405180910390f35b6101ea60048036038101906101e59190611191565b610bc9565b6040516101f993929190611771565b60405180910390f35b61021c600480360381019061021791906111fb565b610c0d565b005b610226610d32565b005b610230610df6565b60405161023d9190611605565b60405180910390f35b61024e610e1a565b60405161025b919061167f565b60405180910390f35b6000600360003373ffffffffffffffffffffffffffffffffffffffff1673ffffffffffffffffffffffffffffffffffffffff1681526020019081526020016000209050600160009054906101000a900460ff16156102f7576040517f08c379a00000000000000000000000000000000000000000000000000000000081526004016102ee90611731565b60405180910390fd5b8060010160009054906101000a900460ff1615610349576040517f08c379a0000000000000000000000000000000000000000000000000000000008152600401610340906116d1565b60405180910390fd5b8060010160019054906101000a900460ff1661039a576040517f08c379a000000000000000000000000000000000000000000000000000000000815260040161039190611711565b60405180910390fd5b60018160010160006101000a81548160ff021916908315150217905550600282815481106103f1577f4e487b7100000000000000000000000000000000000000000000000000000000600052603260045260246000fd5b90600052602060002090600202016001016000815480929190610413906119bc565b91905055508181600001819055505050565b60606002805480602002602001604051908101604052809291908181526020016000905b82821015610517578382906000526020600020906002020160405180604001604052908160008201805461047c9061198a565b80601f01602080910402602001604051908101604052809291908181526020018280546104a89061198a565b80156104f55780601f106104ca576101008083540402835291602001916104f5565b820191906000526020600020905b8154815290600101906020018083116104d857829003601f168201915b5050505050815260200160018201548152505081526020019060010190610449565b50505050905090565b60018054906101000a900473ffffffffffffffffffffffffffffffffffffffff1673ffffffffffffffffffffffffffffffffffffffff163373ffffffffffffffffffffffffffffffffffffffff161461057857600080fd5b60005b8151811015610755576001600360008484815181106105c3577f4e487b7100000000000000000000000000000000000000000000000000000000600052603260045260246000fd5b602002602001015173ffffffffffffffffffffffffffffffffffffffff1673ffffffffffffffffffffffffffffffffffffffff16815260200190815260200160002060010160016101000a81548160ff02191690831515021790555060006003600084848151811061065e577f4e487b7100000000000000000000000000000000000000000000000000000000600052603260045260246000fd5b602002602001015173ffffffffffffffffffffffffffffffffffffffff1673ffffffffffffffffffffffffffffffffffffffff16815260200190815260200160002060010160006101000a81548160ff0219169083151502179055506000600360008484815181106106f9577f4e487b7100000000000000000000000000000000000000000000000000000000600052603260045260246000fd5b602002602001015173ffffffffffffffffffffffffffffffffffffffff1673ffffffffffffffffffffffffffffffffffffffff16815260200190815260200160002060000181905550808061074d906119bc565b91505061057b565b507f47a0b9e6b320713bebe0ff7b80b4e6514967db1eca91025e190663eb66a0e2ae816040516107859190611620565b60405180910390a150565b600281815481106107a057600080fd5b90600052602060002090600202016000915090508060000180546107c39061198a565b80601f01602080910402602001604051908101604052809291908181526020018280546107ef9061198a565b801561083c5780601f106108115761010080835404028352916020019161083c565b820191906000526020600020905b81548152906001019060200180831161081f57829003601f168201915b5050505050908060010154905082565b8060009080519060200190610862929190610eac565b5050565b60018054906101000a900473ffffffffffffffffffffffffffffffffffffffff1673ffffffffffffffffffffffffffffffffffffffff163373ffffffffffffffffffffffffffffffffffffffff16146108be57600080fd5b6000600160006101000a81548160ff021916908315150217905550600260006108e79190610f32565b60005b81518110156109b05760026040518060400160405280848481518110610939577f4e487b7100000000000000000000000000000000000000000000000000000000600052603260045260246000fd5b60200260200101518152602001600081525090806001815401808255809150506001900390600052602060002090600202016000909190919091506000820151816000019080519060200190610990929190610eac565b5060208201518160010155505080806109a8906119bc565b9150506108ea565b5050565b6060600080600090506060600160009054906101000a900460ff16610a0e576040517f08c379a0000000000000000000000000000000000000000000000000000000008152600401610a0590611751565b60405180910390fd5b60005b600280549050811015610ba9578260028281548110610a59577f4e487b7100000000000000000000000000000000000000000000000000000000600052603260045260246000fd5b9060005260206000209060020201600101541115610b965760028181548110610aab577f4e487b7100000000000000000000000000000000000000000000000000000000600052603260045260246000fd5b906000526020600020906002020160010154925060028181548110610af9577f4e487b7100000000000000000000000000000000000000000000000000000000600052603260045260246000fd5b90600052602060002090600202016000018054610b159061198a565b80601f0160208091040260200160405190810160405280929190818152602001828054610b419061198a565b8015610b8e5780601f10610b6357610100808354040283529160200191610b8e565b820191906000526020600020905b815481529060010190602001808311610b7157829003601f168201915b505050505091505b8080610ba1906119bc565b915050610a11565b5080829350935050509091565b600160009054906101000a900460ff1681565b60036020528060005260406000206000915090508060000154908060010160009054906101000a900460ff16908060010160019054906101000a900460ff16905083565b60018054906101000a900473ffffffffffffffffffffffffffffffffffffffff1673ffffffffffffffffffffffffffffffffffffffff163373ffffffffffffffffffffffffffffffffffffffff1614610c6557600080fd5b60005b8151811015610d2e5760026040518060400160405280848481518110610cb7577f4e487b7100000000000000000000000000000000000000000000000000000000600052603260045260246000fd5b60200260200101518152602001600081525090806001815401808255809150506001900390600052602060002090600202016000909190919091506000820151816000019080519060200190610d0e929190610eac565b506020820151816001015550508080610d26906119bc565b915050610c68565b5050565b60018054906101000a900473ffffffffffffffffffffffffffffffffffffffff1673ffffffffffffffffffffffffffffffffffffffff163373ffffffffffffffffffffffffffffffffffffffff1614610d8a57600080fd5b600160009054906101000a900460ff1615610dda576040517f08c379a0000000000000000000000000000000000000000000000000000000008152600401610dd1906116f1565b60405180910390fd5b60018060006101000a81548160ff021916908315150217905550565b60018054906101000a900473ffffffffffffffffffffffffffffffffffffffff1681565b606060008054610e299061198a565b80601f0160208091040260200160405190810160405280929190818152602001828054610e559061198a565b8015610ea25780601f10610e7757610100808354040283529160200191610ea2565b820191906000526020600020905b815481529060010190602001808311610e8557829003601f168201915b5050505050905090565b828054610eb89061198a565b90600052602060002090601f016020900481019282610eda5760008555610f21565b82601f10610ef357805160ff1916838001178555610f21565b82800160010185558215610f21579182015b82811115610f20578251825591602001919060010190610f05565b5b509050610f2e9190610f56565b5090565b5080546000825560020290600052602060002090810190610f539190610f73565b50565b5b80821115610f6f576000816000905550600101610f57565b5090565b5b80821115610f9e5760008082016000610f8d9190610fa2565b600182016000905550600201610f74565b5090565b508054610fae9061198a565b6000825580601f10610fc05750610fdf565b601f016020900490600052602060002090810190610fde9190610f56565b5b50565b6000610ff5610ff0846117d9565b6117a8565b9050808382526020820190508285602086028201111561101457600080fd5b60005b85811015611044578161102a88826110e9565b845260208401935060208301925050600181019050611017565b5050509392505050565b600061106161105c84611805565b6117a8565b9050808382526020820190508260005b858110156110a157813585016110878882611152565b845260208401935060208301925050600181019050611071565b5050509392505050565b60006110be6110b984611831565b6117a8565b9050828152602081018484840111156110d657600080fd5b6110e1848285611948565b509392505050565b6000813590506110f881611aa3565b92915050565b600082601f83011261110f57600080fd5b813561111f848260208601610fe2565b91505092915050565b600082601f83011261113957600080fd5b813561114984826020860161104e565b91505092915050565b600082601f83011261116357600080fd5b81356111738482602086016110ab565b91505092915050565b60008135905061118b81611aba565b92915050565b6000602082840312156111a357600080fd5b60006111b1848285016110e9565b91505092915050565b6000602082840312156111cc57600080fd5b600082013567ffffffffffffffff8111156111e657600080fd5b6111f2848285016110fe565b91505092915050565b60006020828403121561120d57600080fd5b600082013567ffffffffffffffff81111561122757600080fd5b61123384828501611128565b91505092915050565b60006020828403121561124e57600080fd5b600082013567ffffffffffffffff81111561126857600080fd5b61127484828501611152565b91505092915050565b60006020828403121561128f57600080fd5b600061129d8482850161117c565b91505092915050565b60006112b283836112d2565b60208301905092915050565b60006112ca83836115aa565b905092915050565b6112db81611900565b82525050565b6112ea81611900565b82525050565b60006112fb82611881565b61130581856118bc565b935061131083611861565b8060005b8381101561134157815161132888826112a6565b9750611333836118a2565b925050600181019050611314565b5085935050505092915050565b60006113598261188c565b61136381856118cd565b93508360208202850161137585611871565b8060005b858110156113b1578484038952815161139285826112be565b945061139d836118af565b925060208a01995050600181019050611379565b50829750879550505050505092915050565b6113cc81611912565b82525050565b60006113dd82611897565b6113e781856118de565b93506113f7818560208601611957565b61140081611a92565b840191505092915050565b600061141682611897565b61142081856118ef565b9350611430818560208601611957565b61143981611a92565b840191505092915050565b60006114516022836118ef565b91507f627373206b61722062686169206b69746e69206261617220766f7465206b726560008301527f67610000000000000000000000000000000000000000000000000000000000006020830152604082019050919050565b60006114b76017836118ef565b91507f566f74696e6720697320616c726561647920656e6465640000000000000000006000830152602082019050919050565b60006114f7601a836118ef565b91507f796f7520617265206e6f7420417070726f76656420766f7465720000000000006000830152602082019050919050565b6000611537600f836118ef565b91507f566f74696e6720697320656e64656400000000000000000000000000000000006000830152602082019050919050565b60006115776017836118ef565b91507f566f74696e67206973206e6f7420456e646564205965740000000000000000006000830152602082019050919050565b600060408301600083015184820360008601526115c782826113d2565b91505060208301516115dc60208601826115e7565b508091505092915050565b6115f08161193e565b82525050565b6115ff8161193e565b82525050565b600060208201905061161a60008301846112e1565b92915050565b6000602082019050818103600083015261163a81846112f0565b905092915050565b6000602082019050818103600083015261165c818461134e565b905092915050565b600060208201905061167960008301846113c3565b92915050565b60006020820190508181036000830152611699818461140b565b905092915050565b600060408201905081810360008301526116bb818561140b565b90506116ca60208301846115f6565b9392505050565b600060208201905081810360008301526116ea81611444565b9050919050565b6000602082019050818103600083015261170a816114aa565b9050919050565b6000602082019050818103600083015261172a816114ea565b9050919050565b6000602082019050818103600083015261174a8161152a565b9050919050565b6000602082019050818103600083015261176a8161156a565b9050919050565b600060608201905061178660008301866115f6565b61179360208301856113c3565b6117a060408301846113c3565b949350505050565b6000604051905081810181811067ffffffffffffffff821117156117cf576117ce611a63565b5b8060405250919050565b600067ffffffffffffffff8211156117f4576117f3611a63565b5b602082029050602081019050919050565b600067ffffffffffffffff8211156118205761181f611a63565b5b602082029050602081019050919050565b600067ffffffffffffffff82111561184c5761184b611a63565b5b601f19601f8301169050602081019050919050565b6000819050602082019050919050565b6000819050602082019050919050565b600081519050919050565b600081519050919050565b600081519050919050565b6000602082019050919050565b6000602082019050919050565b600082825260208201905092915050565b600082825260208201905092915050565b600082825260208201905092915050565b600082825260208201905092915050565b600061190b8261191e565b9050919050565b60008115159050919050565b600073ffffffffffffffffffffffffffffffffffffffff82169050919050565b6000819050919050565b82818337600083830152505050565b60005b8381101561197557808201518184015260208101905061195a565b83811115611984576000848401525b50505050565b600060028204905060018216806119a257607f821691505b602082108114156119b6576119b5611a34565b5b50919050565b60006119c78261193e565b91507fffffffffffffffffffffffffffffffffffffffffffffffffffffffffffffffff8214156119fa576119f9611a05565b5b600182019050919050565b7f4e487b7100000000000000000000000000000000000000000000000000000000600052601160045260246000fd5b7f4e487b7100000000000000000000000000000000000000000000000000000000600052602260045260246000fd5b7f4e487b7100000000000000000000000000000000000000000000000000000000600052604160045260246000fd5b6000601f19601f8301169050919050565b611aac81611900565b8114611ab757600080fd5b50565b611ac38161193e565b8114611ace57600080fd5b5056fea264697066735822122082dd812b94c57bc928b795a56ce9f0a7439928bac69e322de1fe17af677728f864736f6c63430008000033",
  "immutableReferences": {},
  "source": "// SPDX-License-Identifier: MIT\r\npragma solidity ^0.8.0;\r\n\r\ncontract Voting {\r\n    struct Voter {\r\n        uint256 vote; //candidate index basical\r\n        bool hasVoted; //voted or not\r\n        bool canVote; // approved or not\r\n    }\r\n    struct Candidate {\r\n        string name;\r\n        uint256 voteCount;\r\n    }\r\n    string Title;\r\n    bool public votingEnded = false;\r\n    address public chairPerson;\r\n     \r\n    Candidate[] public candidates;\r\n    mapping(address => Voter) public voters;\r\n    event ApproveVoter(address[] _approvedAddresses);\r\n    constructor() {\r\n        chairPerson = msg.sender;\r\n    }\r\n\r\n    modifier onlyChairperson() {\r\n        require(msg.sender == chairPerson);\r\n        _;\r\n    }\r\n\r\n    function addCandidates(string[] memory candidateNames) public onlyChairperson {\r\n        for (uint256 i = 0; i < candidateNames.length; i++) {\r\n            candidates.push(Candidate({name: candidateNames[i], voteCount: 0}));\r\n        }\r\n    }\r\n    function addTitle(string memory title) public{\r\n         Title=title;\r\n     }\r\n     function getTitle() public view returns(string memory){\r\n         return Title;\r\n     }\r\n\r\n    function updateCandidates(string[] memory newCandidatesNames) public onlyChairperson{\r\n        votingEnded = false;\r\n         delete candidates;\r\n        for (uint256 i = 0; i < newCandidatesNames.length; i++) {\r\n            candidates.push(Candidate({name: newCandidatesNames[i], voteCount: 0}));\r\n        }\r\n    }\r\n\r\n    function getCandidates() public view returns(Candidate[] memory){\r\n        return candidates;\r\n    }\r\n\r\n\r\n    function approveVoter(\r\n        address[] memory votersToBeApproved\r\n    ) public onlyChairperson {\r\n        for (uint256 i = 0; i < votersToBeApproved.length; i++) {\r\n            voters[votersToBeApproved[i]].canVote = true;\r\n            voters[votersToBeApproved[i]].hasVoted = false;\r\n            voters[votersToBeApproved[i]].vote = 0;\r\n        }\r\n        emit ApproveVoter(votersToBeApproved);\r\n    }\r\n    \r\n\r\n    function vote(uint256 candidateIndex) public {\r\n        Voter storage sender = voters[msg.sender];\r\n        require(!votingEnded, \"Voting is ended\");\r\n        require(!sender.hasVoted, \"bss kar bhai kitni baar vote krega\");\r\n        require(sender.canVote, \"you are not Approved voter\");\r\n        sender.hasVoted = true;\r\n        candidates[candidateIndex].voteCount++;\r\n        sender.vote = candidateIndex;\r\n    }\r\n\r\n    function endVoting() public onlyChairperson {\r\n        require(!votingEnded, \"Voting is already ended\");\r\n        votingEnded = true;\r\n    }\r\n\r\n    function getWinner() public view  returns (string memory,uint) {\r\n        uint maxVotes = 0;\r\n        string memory winner;\r\n        require(votingEnded, \"Voting is not Ended Yet\");\r\n        for (uint i = 0; i < candidates.length; i++) {\r\n            if (candidates[i].voteCount > maxVotes) {\r\n                maxVotes = candidates[i].voteCount;\r\n                winner = candidates[i].name;\r\n            }\r\n        }\r\n        return (winner,maxVotes);\r\n    }\r\n}\r\n",
  "sourcePath": "E:\\Decentralize Voting\\VotingApp\\contracts\\Voting.sol",
  "compiler": {
    "name": "solc",
    "version": "0.8.0+commit.c7dfd78e.Emscripten.clang"
  },
  "schemaVersion": "3.4.13",
  "updatedAt": "2023-06-13T06:41:02.968Z",
  "networkType": "ethereum",
  "devdoc": {
    "kind": "dev",
    "methods": {},
    "version": 1
  },
  "userdoc": {
    "kind": "user",
    "methods": {},
    "version": 1
  }
}