{
  "contractName": "Voting",
  "abi": [
    {
      "inputs": [],
      "stateMutability": "nonpayable",
      "type": "constructor"
    },
    {
      "inputs": [
        {
          "internalType": "uint256",
          "name": "",
          "type": "uint256"
        }
      ],
      "name": "candidates",
      "outputs": [
        {
          "internalType": "string",
          "name": "name",
          "type": "string"
        },
        {
          "internalType": "uint256",
          "name": "voteCount",
          "type": "uint256"
        }
      ],
      "stateMutability": "view",
      "type": "function",
      "constant": true
    },
    {
      "inputs": [],
      "name": "chairPerson",
      "outputs": [
        {
          "internalType": "address",
          "name": "",
          "type": "address"
        }
      ],
      "stateMutability": "view",
      "type": "function",
      "constant": true
    },
    {
      "inputs": [
        {
          "internalType": "address",
          "name": "",
          "type": "address"
        }
      ],
      "name": "voters",
      "outputs": [
        {
          "internalType": "uint256",
          "name": "vote",
          "type": "uint256"
        },
        {
          "internalType": "bool",
          "name": "hasVoted",
          "type": "bool"
        },
        {
          "internalType": "bool",
          "name": "canVote",
          "type": "bool"
        }
      ],
      "stateMutability": "view",
      "type": "function",
      "constant": true
    },
    {
      "inputs": [
        {
          "internalType": "string[]",
          "name": "candidateNames",
          "type": "string[]"
        }
      ],
      "name": "addCandidates",
      "outputs": [],
      "stateMutability": "nonpayable",
      "type": "function"
    },
    {
      "inputs": [
        {
          "internalType": "address[]",
          "name": "votersToBeApproved",
          "type": "address[]"
        }
      ],
      "name": "approveVoter",
      "outputs": [],
      "stateMutability": "nonpayable",
      "type": "function"
    },
    {
      "inputs": [
        {
          "internalType": "uint256",
          "name": "candidateIndex",
          "type": "uint256"
        }
      ],
      "name": "vote",
      "outputs": [],
      "stateMutability": "nonpayable",
      "type": "function"
    },
    {
      "inputs": [],
      "name": "endVoting",
      "outputs": [],
      "stateMutability": "nonpayable",
      "type": "function"
    },
    {
      "inputs": [],
      "name": "getWinner",
      "outputs": [
        {
          "internalType": "string",
          "name": "",
          "type": "string"
        }
      ],
      "stateMutability": "view",
      "type": "function",
      "constant": true
    }
  ],
  "bytecode": "0x608060405260008060006101000a81548160ff02191690831515021790555034801561002a57600080fd5b5033600060016101000a81548173ffffffffffffffffffffffffffffffffffffffff021916908373ffffffffffffffffffffffffffffffffffffffff1602179055506114b38061007b6000396000f3fe608060405234801561001057600080fd5b50600436106100885760003560e01c8063a3ec138d1161005b578063a3ec138d14610114578063a999e56214610146578063c3403ddf14610162578063d4d4b5ac1461016c57610088565b80630121b93f1461008d5780631c2979f6146100a95780633477ee2e146100c55780638e7ea5b2146100f6575b600080fd5b6100a760048036038101906100a29190610922565b61018a565b005b6100c360048036038101906100be9190610b06565b610323565b005b6100df60048036038101906100da9190610922565b610415565b6040516100ed929190610bdd565b60405180910390f35b6100fe6104d1565b60405161010b9190610c0d565b60405180910390f35b61012e60048036038101906101299190610c2f565b6106b0565b60405161013d93929190610c77565b60405180910390f35b610160600480360381019061015b9190610e44565b6106f4565b005b61016a6107ee565b005b6101746108b2565b6040516101819190610e9c565b60405180910390f35b6000600260003373ffffffffffffffffffffffffffffffffffffffff1673ffffffffffffffffffffffffffffffffffffffff168152602001908152602001600020905060008054906101000a900460ff161561021b576040517f08c379a000000000000000000000000000000000000000000000000000000000815260040161021290610f03565b60405180910390fd5b8060010160009054906101000a900460ff161561026d576040517f08c379a000000000000000000000000000000000000000000000000000000000815260040161026490610f95565b60405180910390fd5b8060010160019054906101000a900460ff166102be576040517f08c379a00000000000000000000000000000000000000000000000000000000081526004016102b590611001565b60405180910390fd5b60018160010160006101000a81548160ff021916908315150217905550600182815481106102ef576102ee611021565b5b906000526020600020906002020160010160008154809291906103119061107f565b91905055508181600001819055505050565b600060019054906101000a900473ffffffffffffffffffffffffffffffffffffffff1673ffffffffffffffffffffffffffffffffffffffff163373ffffffffffffffffffffffffffffffffffffffff161461037d57600080fd5b60005b8151811015610411576001600260008484815181106103a2576103a1611021565b5b602002602001015173ffffffffffffffffffffffffffffffffffffffff1673ffffffffffffffffffffffffffffffffffffffff16815260200190815260200160002060010160016101000a81548160ff02191690831515021790555080806104099061107f565b915050610380565b5050565b6001818154811061042557600080fd5b9060005260206000209060020201600091509050806000018054610448906110f6565b80601f0160208091040260200160405190810160405280929190818152602001828054610474906110f6565b80156104c15780601f10610496576101008083540402835291602001916104c1565b820191906000526020600020905b8154815290600101906020018083116104a457829003601f168201915b5050505050908060010154905082565b6060600060019054906101000a900473ffffffffffffffffffffffffffffffffffffffff1673ffffffffffffffffffffffffffffffffffffffff163373ffffffffffffffffffffffffffffffffffffffff161461052d57600080fd5b6000606060008054906101000a900460ff1661057e576040517f08c379a000000000000000000000000000000000000000000000000000000000815260040161057590611173565b60405180910390fd5b60005b6001805490508110156106a75782600182815481106105a3576105a2611021565b5b906000526020600020906002020160010154111561069457600181815481106105cf576105ce611021565b5b9060005260206000209060020201600101549250600181815481106105f7576105f6611021565b5b90600052602060002090600202016000018054610613906110f6565b80601f016020809104026020016040519081016040528092919081815260200182805461063f906110f6565b801561068c5780601f106106615761010080835404028352916020019161068c565b820191906000526020600020905b81548152906001019060200180831161066f57829003601f168201915b505050505091505b808061069f9061107f565b915050610581565b50809250505090565b60026020528060005260406000206000915090508060000154908060010160009054906101000a900460ff16908060010160019054906101000a900460ff16905083565b600060019054906101000a900473ffffffffffffffffffffffffffffffffffffffff1673ffffffffffffffffffffffffffffffffffffffff163373ffffffffffffffffffffffffffffffffffffffff161461074e57600080fd5b60005b81518110156107ea576001604051806040016040528084848151811061077a57610779611021565b5b602002602001015181526020016000815250908060018154018082558091505060019003906000526020600020906002020160009091909190915060008201518160000190816107ca919061133f565b5060208201518160010155505080806107e29061107f565b915050610751565b5050565b600060019054906101000a900473ffffffffffffffffffffffffffffffffffffffff1673ffffffffffffffffffffffffffffffffffffffff163373ffffffffffffffffffffffffffffffffffffffff161461084857600080fd5b60008054906101000a900460ff1615610896576040517f08c379a000000000000000000000000000000000000000000000000000000000815260040161088d9061145d565b60405180910390fd5b60016000806101000a81548160ff021916908315150217905550565b600060019054906101000a900473ffffffffffffffffffffffffffffffffffffffff1681565b6000604051905090565b600080fd5b600080fd5b6000819050919050565b6108ff816108ec565b811461090a57600080fd5b50565b60008135905061091c816108f6565b92915050565b600060208284031215610938576109376108e2565b5b60006109468482850161090d565b91505092915050565b600080fd5b6000601f19601f8301169050919050565b7f4e487b7100000000000000000000000000000000000000000000000000000000600052604160045260246000fd5b61099d82610954565b810181811067ffffffffffffffff821117156109bc576109bb610965565b5b80604052505050565b60006109cf6108d8565b90506109db8282610994565b919050565b600067ffffffffffffffff8211156109fb576109fa610965565b5b602082029050602081019050919050565b600080fd5b600073ffffffffffffffffffffffffffffffffffffffff82169050919050565b6000610a3c82610a11565b9050919050565b610a4c81610a31565b8114610a5757600080fd5b50565b600081359050610a6981610a43565b92915050565b6000610a82610a7d846109e0565b6109c5565b90508083825260208201905060208402830185811115610aa557610aa4610a0c565b5b835b81811015610ace5780610aba8882610a5a565b845260208401935050602081019050610aa7565b5050509392505050565b600082601f830112610aed57610aec61094f565b5b8135610afd848260208601610a6f565b91505092915050565b600060208284031215610b1c57610b1b6108e2565b5b600082013567ffffffffffffffff811115610b3a57610b396108e7565b5b610b4684828501610ad8565b91505092915050565b600081519050919050565b600082825260208201905092915050565b60005b83811015610b89578082015181840152602081019050610b6e565b60008484015250505050565b6000610ba082610b4f565b610baa8185610b5a565b9350610bba818560208601610b6b565b610bc381610954565b840191505092915050565b610bd7816108ec565b82525050565b60006040820190508181036000830152610bf78185610b95565b9050610c066020830184610bce565b9392505050565b60006020820190508181036000830152610c278184610b95565b905092915050565b600060208284031215610c4557610c446108e2565b5b6000610c5384828501610a5a565b91505092915050565b60008115159050919050565b610c7181610c5c565b82525050565b6000606082019050610c8c6000830186610bce565b610c996020830185610c68565b610ca66040830184610c68565b949350505050565b600067ffffffffffffffff821115610cc957610cc8610965565b5b602082029050602081019050919050565b600080fd5b600067ffffffffffffffff821115610cfa57610cf9610965565b5b610d0382610954565b9050602081019050919050565b82818337600083830152505050565b6000610d32610d2d84610cdf565b6109c5565b905082815260208101848484011115610d4e57610d4d610cda565b5b610d59848285610d10565b509392505050565b600082601f830112610d7657610d7561094f565b5b8135610d86848260208601610d1f565b91505092915050565b6000610da2610d9d84610cae565b6109c5565b90508083825260208201905060208402830185811115610dc557610dc4610a0c565b5b835b81811015610e0c57803567ffffffffffffffff811115610dea57610de961094f565b5b808601610df78982610d61565b85526020850194505050602081019050610dc7565b5050509392505050565b600082601f830112610e2b57610e2a61094f565b5b8135610e3b848260208601610d8f565b91505092915050565b600060208284031215610e5a57610e596108e2565b5b600082013567ffffffffffffffff811115610e7857610e776108e7565b5b610e8484828501610e16565b91505092915050565b610e9681610a31565b82525050565b6000602082019050610eb16000830184610e8d565b92915050565b7f566f74696e6720697320656e6465640000000000000000000000000000000000600082015250565b6000610eed600f83610b5a565b9150610ef882610eb7565b602082019050919050565b60006020820190508181036000830152610f1c81610ee0565b9050919050565b7f627373206b61722062686169206b69746e69206261617220766f7465206b726560008201527f6761000000000000000000000000000000000000000000000000000000000000602082015250565b6000610f7f602283610b5a565b9150610f8a82610f23565b604082019050919050565b60006020820190508181036000830152610fae81610f72565b9050919050565b7f796f7520617265206e6f7420417070726f76656420766f746572000000000000600082015250565b6000610feb601a83610b5a565b9150610ff682610fb5565b602082019050919050565b6000602082019050818103600083015261101a81610fde565b9050919050565b7f4e487b7100000000000000000000000000000000000000000000000000000000600052603260045260246000fd5b7f4e487b7100000000000000000000000000000000000000000000000000000000600052601160045260246000fd5b600061108a826108ec565b91507fffffffffffffffffffffffffffffffffffffffffffffffffffffffffffffffff82036110bc576110bb611050565b5b600182019050919050565b7f4e487b7100000000000000000000000000000000000000000000000000000000600052602260045260246000fd5b6000600282049050600182168061110e57607f821691505b602082108103611121576111206110c7565b5b50919050565b7f566f74696e67206973206e6f7420456e64656420596574000000000000000000600082015250565b600061115d601783610b5a565b915061116882611127565b602082019050919050565b6000602082019050818103600083015261118c81611150565b9050919050565b60008190508160005260206000209050919050565b60006020601f8301049050919050565b600082821b905092915050565b6000600883026111f57fffffffffffffffffffffffffffffffffffffffffffffffffffffffffffffffff826111b8565b6111ff86836111b8565b95508019841693508086168417925050509392505050565b6000819050919050565b600061123c611237611232846108ec565b611217565b6108ec565b9050919050565b6000819050919050565b61125683611221565b61126a61126282611243565b8484546111c5565b825550505050565b600090565b61127f611272565b61128a81848461124d565b505050565b5b818110156112ae576112a3600082611277565b600181019050611290565b5050565b601f8211156112f3576112c481611193565b6112cd846111a8565b810160208510156112dc578190505b6112f06112e8856111a8565b83018261128f565b50505b505050565b600082821c905092915050565b6000611316600019846008026112f8565b1980831691505092915050565b600061132f8383611305565b9150826002028217905092915050565b61134882610b4f565b67ffffffffffffffff81111561136157611360610965565b5b61136b82546110f6565b6113768282856112b2565b600060209050601f8311600181146113a95760008415611397578287015190505b6113a18582611323565b865550611409565b601f1984166113b786611193565b60005b828110156113df578489015182556001820191506020850194506020810190506113ba565b868310156113fc57848901516113f8601f891682611305565b8355505b6001600288020188555050505b505050505050565b7f566f74696e6720697320616c726561647920656e646564000000000000000000600082015250565b6000611447601783610b5a565b915061145282611411565b602082019050919050565b600060208201905081810360008301526114768161143a565b905091905056fea2646970667358221220cb19e71e28d735638d0783625e1987253f70eb27381b457c032440db8f7236f764736f6c63430008130033",
  "immutableReferences": {},
  "source": "// SPDX-License-Identifier: MIT\r\npragma solidity ^0.8.0;\r\n\r\ncontract Voting {\r\n    struct Voter {\r\n        uint256 vote; //candidate index basical\r\n        bool hasVoted; //voted or not\r\n        bool canVote; // approved or not\r\n    }\r\n    struct Candidate {\r\n        string name;\r\n        uint256 voteCount;\r\n    }\r\n    bool votingEnded = false;\r\n    address public chairPerson;\r\n    Candidate[] public candidates;\r\n    mapping(address => Voter) public voters;\r\n\r\n    constructor() {\r\n        chairPerson = msg.sender;\r\n    }\r\n\r\n    modifier onlyChairperson() {\r\n        require(msg.sender == chairPerson);\r\n        _;\r\n    }\r\n\r\n    function addCandidates(string[] memory candidateNames) public onlyChairperson {\r\n        for (uint256 i = 0; i < candidateNames.length; i++) {\r\n            candidates.push(Candidate({name: candidateNames[i], voteCount: 0}));\r\n        }\r\n    }\r\n\r\n\r\n    function approveVoter(\r\n        address[] memory votersToBeApproved\r\n    ) public onlyChairperson {\r\n        for (uint256 i = 0; i < votersToBeApproved.length; i++) {\r\n            voters[votersToBeApproved[i]].canVote = true;\r\n        }\r\n    }\r\n\r\n    function vote(uint256 candidateIndex) public {\r\n        Voter storage sender = voters[msg.sender];\r\n        require(!votingEnded, \"Voting is ended\");\r\n        require(!sender.hasVoted, \"bss kar bhai kitni baar vote krega\");\r\n        require(sender.canVote, \"you are not Approved voter\");\r\n        sender.hasVoted = true;\r\n        candidates[candidateIndex].voteCount++;\r\n        sender.vote = candidateIndex;\r\n    }\r\n\r\n    function endVoting() public onlyChairperson {\r\n        require(!votingEnded, \"Voting is already ended\");\r\n        votingEnded = true;\r\n    }\r\n\r\n    function getWinner() public view onlyChairperson returns (string memory) {\r\n        uint maxVotes = 0;\r\n        string memory winner;\r\n        require(votingEnded, \"Voting is not Ended Yet\");\r\n        for (uint i = 0; i < candidates.length; i++) {\r\n            if (candidates[i].voteCount > maxVotes) {\r\n                maxVotes = candidates[i].voteCount;\r\n                winner = candidates[i].name;\r\n            }\r\n        }\r\n        return winner;\r\n    }\r\n}\r\n",
  "sourcePath": "E:\\Decentralize Voting\\VotingApp\\contracts\\Voting.sol",
  "compiler": {
    "name": "solc",
    "version": "0.8.19+commit.7dd6d404.Emscripten.clang"
  },
  "schemaVersion": "3.4.13",
  "updatedAt": "2023-04-09T02:48:54.277Z",
  "networkType": "ethereum",
  "devdoc": {
    "kind": "dev",
    "methods": {},
    "version": 1
  },
  "userdoc": {
    "kind": "user",
    "methods": {},
    "version": 1
  }
}