{
  "contractName": "Voting",
  "abi": [
    {
      "inputs": [],
      "stateMutability": "nonpayable",
      "type": "constructor"
    },
    {
      "inputs": [
        {
          "internalType": "uint256",
          "name": "",
          "type": "uint256"
        }
      ],
      "name": "candidates",
      "outputs": [
        {
          "internalType": "string",
          "name": "name",
          "type": "string"
        },
        {
          "internalType": "uint256",
          "name": "voteCount",
          "type": "uint256"
        }
      ],
      "stateMutability": "view",
      "type": "function",
      "constant": true
    },
    {
      "inputs": [],
      "name": "chairPerson",
      "outputs": [
        {
          "internalType": "address",
          "name": "",
          "type": "address"
        }
      ],
      "stateMutability": "view",
      "type": "function",
      "constant": true
    },
    {
      "inputs": [
        {
          "internalType": "address",
          "name": "",
          "type": "address"
        }
      ],
      "name": "voters",
      "outputs": [
        {
          "internalType": "uint256",
          "name": "vote",
          "type": "uint256"
        },
        {
          "internalType": "bool",
          "name": "hasVoted",
          "type": "bool"
        },
        {
          "internalType": "bool",
          "name": "canVote",
          "type": "bool"
        }
      ],
      "stateMutability": "view",
      "type": "function",
      "constant": true
    },
    {
      "inputs": [],
      "name": "votingEnded",
      "outputs": [
        {
          "internalType": "bool",
          "name": "",
          "type": "bool"
        }
      ],
      "stateMutability": "view",
      "type": "function",
      "constant": true
    },
    {
      "inputs": [
        {
          "internalType": "string[]",
          "name": "candidateNames",
          "type": "string[]"
        }
      ],
      "name": "addCandidates",
      "outputs": [],
      "stateMutability": "nonpayable",
      "type": "function"
    },
    {
      "inputs": [
        {
          "internalType": "string[]",
          "name": "newCandidatesNames",
          "type": "string[]"
        }
      ],
      "name": "updateCandidates",
      "outputs": [],
      "stateMutability": "nonpayable",
      "type": "function"
    },
    {
      "inputs": [],
      "name": "getCandidates",
      "outputs": [
        {
          "components": [
            {
              "internalType": "string",
              "name": "name",
              "type": "string"
            },
            {
              "internalType": "uint256",
              "name": "voteCount",
              "type": "uint256"
            }
          ],
          "internalType": "struct Voting.Candidate[]",
          "name": "",
          "type": "tuple[]"
        }
      ],
      "stateMutability": "view",
      "type": "function",
      "constant": true
    },
    {
      "inputs": [
        {
          "internalType": "address[]",
          "name": "votersToBeApproved",
          "type": "address[]"
        }
      ],
      "name": "approveVoter",
      "outputs": [],
      "stateMutability": "nonpayable",
      "type": "function"
    },
    {
      "inputs": [
        {
          "internalType": "uint256",
          "name": "candidateIndex",
          "type": "uint256"
        }
      ],
      "name": "vote",
      "outputs": [],
      "stateMutability": "nonpayable",
      "type": "function"
    },
    {
      "inputs": [],
      "name": "endVoting",
      "outputs": [],
      "stateMutability": "nonpayable",
      "type": "function"
    },
    {
      "inputs": [],
      "name": "getWinner",
      "outputs": [
        {
          "internalType": "string",
          "name": "",
          "type": "string"
        }
      ],
      "stateMutability": "view",
      "type": "function",
      "constant": true
    }
  ],
  "bytecode": "0x608060405260008060006101000a81548160ff02191690831515021790555034801561002a57600080fd5b5033600060016101000a81548173ffffffffffffffffffffffffffffffffffffffff021916908373ffffffffffffffffffffffffffffffffffffffff16021790555061192b8061007b6000396000f3fe608060405234801561001057600080fd5b50600436106100a95760003560e01c80638e7ea5b2116100715780638e7ea5b2146101515780639d5a05291461016f578063a3ec138d1461018d578063a999e562146101bf578063c3403ddf146101db578063d4d4b5ac146101e5576100a9565b80630121b93f146100ae57806306a49fce146100ca5780631c2979f6146100e85780633477ee2e146101045780638107b0d014610135575b600080fd5b6100c860048036038101906100c39190610c05565b610203565b005b6100d261039c565b6040516100df9190610dd0565b60405180910390f35b61010260048036038101906100fd9190610f98565b610497565b005b61011e60048036038101906101199190610c05565b610589565b60405161012c92919061103a565b60405180910390f35b61014f600480360381019061014a9190611200565b610645565b005b61015961074d565b6040516101669190611249565b60405180910390f35b6101776108d2565b6040516101849190611286565b60405180910390f35b6101a760048036038101906101a291906112a1565b6108e3565b6040516101b6939291906112ce565b60405180910390f35b6101d960048036038101906101d49190611200565b610927565b005b6101e3610a21565b005b6101ed610ae5565b6040516101fa9190611314565b60405180910390f35b6000600260003373ffffffffffffffffffffffffffffffffffffffff1673ffffffffffffffffffffffffffffffffffffffff168152602001908152602001600020905060008054906101000a900460ff1615610294576040517f08c379a000000000000000000000000000000000000000000000000000000000815260040161028b9061137b565b60405180910390fd5b8060010160009054906101000a900460ff16156102e6576040517f08c379a00000000000000000000000000000000000000000000000000000000081526004016102dd9061140d565b60405180910390fd5b8060010160019054906101000a900460ff16610337576040517f08c379a000000000000000000000000000000000000000000000000000000000815260040161032e90611479565b60405180910390fd5b60018160010160006101000a81548160ff0219169083151502179055506001828154811061036857610367611499565b5b9060005260206000209060020201600101600081548092919061038a906114f7565b91905055508181600001819055505050565b60606001805480602002602001604051908101604052809291908181526020016000905b8282101561048e57838290600052602060002090600202016040518060400160405290816000820180546103f39061156e565b80601f016020809104026020016040519081016040528092919081815260200182805461041f9061156e565b801561046c5780601f106104415761010080835404028352916020019161046c565b820191906000526020600020905b81548152906001019060200180831161044f57829003601f168201915b50505050508152602001600182015481525050815260200190600101906103c0565b50505050905090565b600060019054906101000a900473ffffffffffffffffffffffffffffffffffffffff1673ffffffffffffffffffffffffffffffffffffffff163373ffffffffffffffffffffffffffffffffffffffff16146104f157600080fd5b60005b81518110156105855760016002600084848151811061051657610515611499565b5b602002602001015173ffffffffffffffffffffffffffffffffffffffff1673ffffffffffffffffffffffffffffffffffffffff16815260200190815260200160002060010160016101000a81548160ff021916908315150217905550808061057d906114f7565b9150506104f4565b5050565b6001818154811061059957600080fd5b90600052602060002090600202016000915090508060000180546105bc9061156e565b80601f01602080910402602001604051908101604052809291908181526020018280546105e89061156e565b80156106355780601f1061060a57610100808354040283529160200191610635565b820191906000526020600020905b81548152906001019060200180831161061857829003601f168201915b5050505050908060010154905082565b600060019054906101000a900473ffffffffffffffffffffffffffffffffffffffff1673ffffffffffffffffffffffffffffffffffffffff163373ffffffffffffffffffffffffffffffffffffffff161461069f57600080fd5b600160006106ad9190610b0b565b60005b815181101561074957600160405180604001604052808484815181106106d9576106d8611499565b5b60200260200101518152602001600081525090806001815401808255809150506001900390600052602060002090600202016000909190919091506000820151816000019081610729919061174b565b506020820151816001015550508080610741906114f7565b9150506106b0565b5050565b60606000606060008054906101000a900460ff166107a0576040517f08c379a000000000000000000000000000000000000000000000000000000000815260040161079790611869565b60405180910390fd5b60005b6001805490508110156108c95782600182815481106107c5576107c4611499565b5b90600052602060002090600202016001015411156108b657600181815481106107f1576107f0611499565b5b90600052602060002090600202016001015492506001818154811061081957610818611499565b5b906000526020600020906002020160000180546108359061156e565b80601f01602080910402602001604051908101604052809291908181526020018280546108619061156e565b80156108ae5780601f10610883576101008083540402835291602001916108ae565b820191906000526020600020905b81548152906001019060200180831161089157829003601f168201915b505050505091505b80806108c1906114f7565b9150506107a3565b50809250505090565b60008054906101000a900460ff1681565b60026020528060005260406000206000915090508060000154908060010160009054906101000a900460ff16908060010160019054906101000a900460ff16905083565b600060019054906101000a900473ffffffffffffffffffffffffffffffffffffffff1673ffffffffffffffffffffffffffffffffffffffff163373ffffffffffffffffffffffffffffffffffffffff161461098157600080fd5b60005b8151811015610a1d57600160405180604001604052808484815181106109ad576109ac611499565b5b602002602001015181526020016000815250908060018154018082558091505060019003906000526020600020906002020160009091909190915060008201518160000190816109fd919061174b565b506020820151816001015550508080610a15906114f7565b915050610984565b5050565b600060019054906101000a900473ffffffffffffffffffffffffffffffffffffffff1673ffffffffffffffffffffffffffffffffffffffff163373ffffffffffffffffffffffffffffffffffffffff1614610a7b57600080fd5b60008054906101000a900460ff1615610ac9576040517f08c379a0000000000000000000000000000000000000000000000000000000008152600401610ac0906118d5565b60405180910390fd5b60016000806101000a81548160ff021916908315150217905550565b600060019054906101000a900473ffffffffffffffffffffffffffffffffffffffff1681565b5080546000825560020290600052602060002090810190610b2c9190610b2f565b50565b5b80821115610b5a5760008082016000610b499190610b5e565b600182016000905550600201610b30565b5090565b508054610b6a9061156e565b6000825580601f10610b7c5750610b9b565b601f016020900490600052602060002090810190610b9a9190610b9e565b5b50565b5b80821115610bb7576000816000905550600101610b9f565b5090565b6000604051905090565b600080fd5b600080fd5b6000819050919050565b610be281610bcf565b8114610bed57600080fd5b50565b600081359050610bff81610bd9565b92915050565b600060208284031215610c1b57610c1a610bc5565b5b6000610c2984828501610bf0565b91505092915050565b600081519050919050565b600082825260208201905092915050565b6000819050602082019050919050565b600081519050919050565b600082825260208201905092915050565b60005b83811015610c98578082015181840152602081019050610c7d565b60008484015250505050565b6000601f19601f8301169050919050565b6000610cc082610c5e565b610cca8185610c69565b9350610cda818560208601610c7a565b610ce381610ca4565b840191505092915050565b610cf781610bcf565b82525050565b60006040830160008301518482036000860152610d1a8282610cb5565b9150506020830151610d2f6020860182610cee565b508091505092915050565b6000610d468383610cfd565b905092915050565b6000602082019050919050565b6000610d6682610c32565b610d708185610c3d565b935083602082028501610d8285610c4e565b8060005b85811015610dbe5784840389528151610d9f8582610d3a565b9450610daa83610d4e565b925060208a01995050600181019050610d86565b50829750879550505050505092915050565b60006020820190508181036000830152610dea8184610d5b565b905092915050565b600080fd5b7f4e487b7100000000000000000000000000000000000000000000000000000000600052604160045260246000fd5b610e2f82610ca4565b810181811067ffffffffffffffff82111715610e4e57610e4d610df7565b5b80604052505050565b6000610e61610bbb565b9050610e6d8282610e26565b919050565b600067ffffffffffffffff821115610e8d57610e8c610df7565b5b602082029050602081019050919050565b600080fd5b600073ffffffffffffffffffffffffffffffffffffffff82169050919050565b6000610ece82610ea3565b9050919050565b610ede81610ec3565b8114610ee957600080fd5b50565b600081359050610efb81610ed5565b92915050565b6000610f14610f0f84610e72565b610e57565b90508083825260208201905060208402830185811115610f3757610f36610e9e565b5b835b81811015610f605780610f4c8882610eec565b845260208401935050602081019050610f39565b5050509392505050565b600082601f830112610f7f57610f7e610df2565b5b8135610f8f848260208601610f01565b91505092915050565b600060208284031215610fae57610fad610bc5565b5b600082013567ffffffffffffffff811115610fcc57610fcb610bca565b5b610fd884828501610f6a565b91505092915050565b600082825260208201905092915050565b6000610ffd82610c5e565b6110078185610fe1565b9350611017818560208601610c7a565b61102081610ca4565b840191505092915050565b61103481610bcf565b82525050565b600060408201905081810360008301526110548185610ff2565b9050611063602083018461102b565b9392505050565b600067ffffffffffffffff82111561108557611084610df7565b5b602082029050602081019050919050565b600080fd5b600067ffffffffffffffff8211156110b6576110b5610df7565b5b6110bf82610ca4565b9050602081019050919050565b82818337600083830152505050565b60006110ee6110e98461109b565b610e57565b90508281526020810184848401111561110a57611109611096565b5b6111158482856110cc565b509392505050565b600082601f83011261113257611131610df2565b5b81356111428482602086016110db565b91505092915050565b600061115e6111598461106a565b610e57565b9050808382526020820190506020840283018581111561118157611180610e9e565b5b835b818110156111c857803567ffffffffffffffff8111156111a6576111a5610df2565b5b8086016111b3898261111d565b85526020850194505050602081019050611183565b5050509392505050565b600082601f8301126111e7576111e6610df2565b5b81356111f784826020860161114b565b91505092915050565b60006020828403121561121657611215610bc5565b5b600082013567ffffffffffffffff81111561123457611233610bca565b5b611240848285016111d2565b91505092915050565b600060208201905081810360008301526112638184610ff2565b905092915050565b60008115159050919050565b6112808161126b565b82525050565b600060208201905061129b6000830184611277565b92915050565b6000602082840312156112b7576112b6610bc5565b5b60006112c584828501610eec565b91505092915050565b60006060820190506112e3600083018661102b565b6112f06020830185611277565b6112fd6040830184611277565b949350505050565b61130e81610ec3565b82525050565b60006020820190506113296000830184611305565b92915050565b7f566f74696e6720697320656e6465640000000000000000000000000000000000600082015250565b6000611365600f83610fe1565b91506113708261132f565b602082019050919050565b6000602082019050818103600083015261139481611358565b9050919050565b7f627373206b61722062686169206b69746e69206261617220766f7465206b726560008201527f6761000000000000000000000000000000000000000000000000000000000000602082015250565b60006113f7602283610fe1565b91506114028261139b565b604082019050919050565b60006020820190508181036000830152611426816113ea565b9050919050565b7f796f7520617265206e6f7420417070726f76656420766f746572000000000000600082015250565b6000611463601a83610fe1565b915061146e8261142d565b602082019050919050565b6000602082019050818103600083015261149281611456565b9050919050565b7f4e487b7100000000000000000000000000000000000000000000000000000000600052603260045260246000fd5b7f4e487b7100000000000000000000000000000000000000000000000000000000600052601160045260246000fd5b600061150282610bcf565b91507fffffffffffffffffffffffffffffffffffffffffffffffffffffffffffffffff8203611534576115336114c8565b5b600182019050919050565b7f4e487b7100000000000000000000000000000000000000000000000000000000600052602260045260246000fd5b6000600282049050600182168061158657607f821691505b6020821081036115995761159861153f565b5b50919050565b60008190508160005260206000209050919050565b60006020601f8301049050919050565b600082821b905092915050565b6000600883026116017fffffffffffffffffffffffffffffffffffffffffffffffffffffffffffffffff826115c4565b61160b86836115c4565b95508019841693508086168417925050509392505050565b6000819050919050565b600061164861164361163e84610bcf565b611623565b610bcf565b9050919050565b6000819050919050565b6116628361162d565b61167661166e8261164f565b8484546115d1565b825550505050565b600090565b61168b61167e565b611696818484611659565b505050565b5b818110156116ba576116af600082611683565b60018101905061169c565b5050565b601f8211156116ff576116d08161159f565b6116d9846115b4565b810160208510156116e8578190505b6116fc6116f4856115b4565b83018261169b565b50505b505050565b600082821c905092915050565b600061172260001984600802611704565b1980831691505092915050565b600061173b8383611711565b9150826002028217905092915050565b61175482610c5e565b67ffffffffffffffff81111561176d5761176c610df7565b5b611777825461156e565b6117828282856116be565b600060209050601f8311600181146117b557600084156117a3578287015190505b6117ad858261172f565b865550611815565b601f1984166117c38661159f565b60005b828110156117eb578489015182556001820191506020850194506020810190506117c6565b868310156118085784890151611804601f891682611711565b8355505b6001600288020188555050505b505050505050565b7f566f74696e67206973206e6f7420456e64656420596574000000000000000000600082015250565b6000611853601783610fe1565b915061185e8261181d565b602082019050919050565b6000602082019050818103600083015261188281611846565b9050919050565b7f566f74696e6720697320616c726561647920656e646564000000000000000000600082015250565b60006118bf601783610fe1565b91506118ca82611889565b602082019050919050565b600060208201905081810360008301526118ee816118b2565b905091905056fea2646970667358221220cdc0eeaff964037fe21292649635cf4d20ce9c7e0550d350b637baa68047fa8e64736f6c63430008130033",
  "immutableReferences": {},
  "source": "// SPDX-License-Identifier: MIT\r\npragma solidity ^0.8.0;\r\n\r\ncontract Voting {\r\n    struct Voter {\r\n        uint256 vote; //candidate index basical\r\n        bool hasVoted; //voted or not\r\n        bool canVote; // approved or not\r\n    }\r\n    struct Candidate {\r\n        string name;\r\n        uint256 voteCount;\r\n    }\r\n    bool public votingEnded = false;\r\n    address public chairPerson;\r\n    Candidate[] public candidates;\r\n    mapping(address => Voter) public voters;\r\n\r\n    constructor() {\r\n        chairPerson = msg.sender;\r\n    }\r\n\r\n    modifier onlyChairperson() {\r\n        require(msg.sender == chairPerson);\r\n        _;\r\n    }\r\n\r\n    function addCandidates(string[] memory candidateNames) public onlyChairperson {\r\n        for (uint256 i = 0; i < candidateNames.length; i++) {\r\n            candidates.push(Candidate({name: candidateNames[i], voteCount: 0}));\r\n        }\r\n    }\r\n\r\n    function updateCandidates(string[] memory newCandidatesNames) public onlyChairperson{\r\n         delete candidates;\r\n        for (uint256 i = 0; i < newCandidatesNames.length; i++) {\r\n            candidates.push(Candidate({name: newCandidatesNames[i], voteCount: 0}));\r\n        }\r\n    }\r\n\r\n    function getCandidates() public view returns(Candidate[] memory){\r\n        return candidates;\r\n    }\r\n\r\n\r\n    function approveVoter(\r\n        address[] memory votersToBeApproved\r\n    ) public onlyChairperson {\r\n        for (uint256 i = 0; i < votersToBeApproved.length; i++) {\r\n            voters[votersToBeApproved[i]].canVote = true;\r\n        }\r\n    }\r\n\r\n    function vote(uint256 candidateIndex) public {\r\n        Voter storage sender = voters[msg.sender];\r\n        require(!votingEnded, \"Voting is ended\");\r\n        require(!sender.hasVoted, \"bss kar bhai kitni baar vote krega\");\r\n        require(sender.canVote, \"you are not Approved voter\");\r\n        sender.hasVoted = true;\r\n        candidates[candidateIndex].voteCount++;\r\n        sender.vote = candidateIndex;\r\n    }\r\n\r\n    function endVoting() public onlyChairperson {\r\n        require(!votingEnded, \"Voting is already ended\");\r\n        votingEnded = true;\r\n    }\r\n\r\n    function getWinner() public view  returns (string memory) {\r\n        uint maxVotes = 0;\r\n        string memory winner;\r\n        require(votingEnded, \"Voting is not Ended Yet\");\r\n        for (uint i = 0; i < candidates.length; i++) {\r\n            if (candidates[i].voteCount > maxVotes) {\r\n                maxVotes = candidates[i].voteCount;\r\n                winner = candidates[i].name;\r\n            }\r\n        }\r\n        return winner;\r\n    }\r\n}\r\n",
  "sourcePath": "E:\\Decentralize Voting\\VotingApp\\contracts\\Voting.sol",
  "compiler": {
    "name": "solc",
    "version": "0.8.19+commit.7dd6d404.Emscripten.clang"
  },
  "schemaVersion": "3.4.13",
  "updatedAt": "2023-04-26T12:55:14.618Z",
  "networkType": "ethereum",
  "devdoc": {
    "kind": "dev",
    "methods": {},
    "version": 1
  },
  "userdoc": {
    "kind": "user",
    "methods": {},
    "version": 1
  }
}